:020000040800F2
:10000000001000206D330008D1030008DB03000856
:1000100000000000000000000000000000000000E0
:10002000000000000000000000000000E1030008E4
:100030000000000000000000EB030008F5030008CA
:10004000BD33000800000000BD330008BD330008C8
:10005000BD330008BD330008BD330008BD330008C0
:100060000000000001040008BD330008BD33000893
:10007000BD330008BD330008BD3300080000000098
:10008000BD330008BD330008BD330008BD33000890
:10009000BD33000819040008BD330008BD33000853
:1000A000BD330008BD330008BD330008BD33000870
:0C00B000BD330008BD3300080000000054
:1000BC0010B5064C2378002B07D1054B002B02D032
:1000CC00044800E000BF0123237010BD0C00002089
:1000DC000000000054350008044B10B5002B03D071
:1000EC000349044800E000BF10BDC04600000000FA
:1000FC001000002054350008002243088B4274D3B2
:10010C0003098B425FD3030A8B4244D3030B8B420C
:10011C0028D3030C8B420DD3FF22090212BA030C15
:10012C008B4202D31212090265D0030B8B4219D3F6
:10013C0000E0090AC30B8B4201D3CB03C01A524116
:10014C00830B8B4201D38B03C01A5241430B8B425E
:10015C0001D34B03C01A5241030B8B4201D30B0347
:10016C00C01A5241C30A8B4201D3CB02C01A52416E
:10017C00830A8B4201D38B02C01A5241430A8B4231
:10018C0001D34B02C01A5241030A8B4201D30B021A
:10019C00C01A5241CDD2C3098B4201D3CB01C01A34
:1001AC00524183098B4201D38B01C01A524143093E
:1001BC008B4201D34B01C01A524103098B4201D32C
:1001CC000B01C01A5241C3088B4201D3CB00C01A99
:1001DC00524183088B4201D38B00C01A5241430811
:1001EC008B4201D34B00C01A5241411A00D2014636
:1001FC00524110467047FFE701B5002000F006F8A9
:10020C0002BDC0460029F7D076E770477047C0465C
:10021C0080B584B000AFF860B9607A603B607A68F2
:10022C00BB68D21AB9693B68CB1A9A4214D9FA68DE
:10023C00BB68D31AB9693A688A1A01325A4310005A
:10024C007A68BB68D31A01331900FFF755FF030016
:10025C001A003B68D31811E0FA68BB68D31AB96965
:10026C003A688A1A5A4310007A68BB68D31A190084
:10027C00FFF742FF03001A003B68D3181800BD4675
:10028C0004B080BD80B58AB002AF0023FB6132237D
:10029C007B6064233B610F23FB1801221A7002F070
:1002AC00F1FF6423BB6003F03FF80300434A934221
:1002BC0007D8BB68013BBB60BB68002B01D0012396
:1002CC0000E00023002B03D00A2002F0CFFFEAE766
:1002DC0003F020F80200CB21002391425B41DBB2FA
:1002EC00002B02D00023FB610AE003F013F8344A20
:1002FC00334B00936623CC21FFF78AFF0300FB618D
:10030C000F23FB181B78002B07D003F00DF803000C
:10031C002A4A934201D8012300E00023002B03D08A
:10032C000F23FB1800221A700F23FB181B78002BCD
:10033C0001D0FB6900E00023FB61FB69180003F0AE
:10034C0001F802F08BFF03003B60FB69002B02D12C
:10035C0002F0C0FF1CE03A687B69D31A3A699A42F2
:10036C0016D202F0C5FF03001A0001235340DBB282
:10037C00002B04D002F0A0FF32233B6106E002F018
:10038C00A9FFFB690E4AD31A9B083B613B687B6152
:10039C000F23FB181B7801225340DBB2002B09D032
:1003AC003A68BB69D31A7A689A4203D202F078FF92
:1003BC003B68BB610A2002F059FF89E7E90A00009B
:1003CC00FF0F000080B500AFC046BD4680BD80B5B4
:1003DC0000AFFEE780B500AFC046BD4680BD80B51E
:1003EC0000AFC046BD4680BD80B500AFC046BD461F
:1003FC0080BD000080B500AF034B180002F006FC76
:10040C00C046BD4680BDC0461801002080B500AF77
:10041C00034B180001F022FEC046BD4680BDC0460D
:10042C005800002080B582B000AF0F4B9A690E4B7C
:10043C0001210A439A610C4B9B69012213407B609A
:10044C007B68094BDA69084B802149050A43DA615C
:10045C00054BDA6980235B0513403B603B68C04663
:10046C00BD4602B080BDC0460010024090B58BB0B6
:10047C0000AF786014243B19180014231A000021D3
:10048C0003F05AF87B681B682D4A934253D12D4BCD
:10049C009A692C4B802189000A439A61294B9A69ED
:1004AC0080239B0013403B613B69264B5A69254BCB
:1004BC00802189020A435A61224B5A6980239B028C
:1004CC001340FB60FB683B190A221A603B1903229C
:1004DC005A603B1900229A603A199023DB051100EF
:1004EC00180002F07DFC184B184A1A60164B0022BB
:1004FC005A60154B00229A60134B8022DA60124B23
:10050C00802252001A61104B8022D2005A610E4B8D
:10051C0020229A610C4B0022DA610B4B180002F07E
:10052C00C7FA031E01D000F077FB7B68064A1A63FA
:10053C00054B7A685A62C046BD460BB090BDC046AA
:10054C000024014000100240180100200800024065
:10055C0080B584B000AF78607B681B680A4A934210
:10056C000DD10A4B9A69094B802109010A439A6102
:10057C00064B9A6980231B011340FB60FB68C04645
:10058C00BD4604B080BDC046002C014000100240A6
:10059C0080B584B000AF78607B681B680A4A9342D0
:1005AC000DD10A4BDA69094B802149000A43DA6103
:1005BC00064BDA6980235B001340FB60FB68C04686
:1005CC00BD4604B080BDC046002000400010024073
:1005DC0090B58BB000AF786014243B19180014232D
:1005EC001A00002102F0A8FF7B681B682B4A93427B
:1005FC0026D12B4B5A692A4B802189020A435A6116
:10060C00274B5A6980239B0213403B613B693B1982
:10061C00802292001A6021007B1802225A607B18FB
:10062C0000229A607B180022DA607B1802221A6181
:10063C007A189023DB051100180002F0D1FB29E099
:10064C007B681B68174A934224D1154B5A69144B8B
:10065C00802189020A435A61114B5A6980239B02FB
:10066C001340FB60FB6814217B1810221A607B1866
:10067C0002225A607B1800229A607B180022DA60F2
:10068C007B1804221A617A189023DB0511001800DC
:10069C0002F0A6FBC046BD460BB090BD002C01403D
:1006AC00001002400020004080B58AB000AF786096
:1006BC0000237B6200233B627B680022190015201B
:1006CC0001F0E6FB152001F0F8FB214B9A69204B59
:1006DC00802189020A439A611D4B9A6980239B02EF
:1006EC001340BB60BB680C23FA181023FB181100D5
:1006FC00180001F01BFB01F003FB03007B627B6A1B
:10070C0014491800FFF7F8FC0300013B3B62124B45
:10071C00124A1A60104B124ADA600F4B3A6A5A604E
:10072C000D4B00221A610C4B00229A600A4B1800E8
:10073C0001F0D3FB031E05D1074B180001F0F9FBA8
:10074C00030000E001231800BD460AB080BDC0467E
:10075C000010024040420F005800002000440140AD
:10076C00E703000080B500AF00F060FA00F00FF86E
:10077C0000F0DEF900F0BEF900F0D6F800F052F807
:10078C0000F068F902F03CFDFFF77CFDFEE790B548
:10079C0091B000AF10243B19180030231A0000212F
:1007AC0002F0CAFE3B00180010231A00002102F0D0
:1007BC00C3FE21007B1802221A607B180122DA602A
:1007CC007B1810221A617B1802221A627B180022F5
:1007DC005A627B18A02292039A627B180022DA627A
:1007EC007B18180000F036FE031E01D000F014FA3E
:1007FC003B0007221A603B0002225A603B00002299
:10080C009A603B000022DA603B000121180001F0E5
:10081C003BF9031E01D000F0FFF9C046BD4611B0F4
:10082C0090BD000080B584B000AF3B1D18000C23B8
:10083C001A00002102F080FE394B3A4A1A60384BFC
:10084C00802212065A60364B00229A60344B0022EA
:10085C00DA60334B01221A61314B08225A61304B5A
:10086C0000221A762E4B00225A762D4B01229A76B4
:10087C002B4B0022DA762A4BC222FF32DA61284B4C
:10088C0000221A62264B242201219954244B002267
:10089C009A62234B180000F01DFA031E01D000F0E1
:1008AC00BBF93B1D01221A603B1D802252015A608C
:1008BC003B1D07229A603A1D194B1100180000F0DD
:1008CC00D3FB031E01D000F0A7F93B1D03221A60D5
:1008DC003A1D134B1100180000F0C6FB031E01D08B
:1008EC0000F09AF93B1D10221A603A1D0C4B1100B6
:1008FC00180000F0B9FB031E01D000F08DF93B1D70
:10090C0011221A603A1D064B1100180000F0ACFBC6
:10091C00031E01D000F080F9C046BD4604B080BD76
:10092C005C0100200024014080B592B000AF402350
:10093C00FB18180008231A00002102F0FDFD2423E7
:10094C00FB1818001C231A00002102F0F5FD3B1DBA
:10095C00180020231A00002102F0EEFD3A4B3B4A0E
:10096C001A60394B00225A60374B00229A60364B82
:10097C00374ADA60344B00221A61334B00225A6139
:10098C00314B00229A61304B180001F0F4FA031E2F
:10099C0001D000F041F940217B1800221A607B182D
:1009AC0000225A607A18284B1100180001F0C0FF81
:1009BC00031E01D000F030F924217B1860221A604C
:1009CC007B1800225A607B1800229A607B18002248
:1009DC00DA607B1800221A617B1800225A617B189E
:1009EC0000229A617918184B0422180001F04CFC73
:1009FC00031E01D000F010F93B1D00221A603B1DB4
:100A0C0000225A603B1D00229A603B1D0022DA60D6
:100A1C003B1D00221A613B1D802292015A613B1D35
:100A2C000022DA613A1D084B1100180001F0D2FFC8
:100A3C00031E01D000F0F0F8034B1800FFF7C8FDBF
:100A4C00C046BD4612B080BD98000020002C01406D
:100A5C00FF0F000080B588B000AF3B1D18001C23B1
:100A6C001A00002102F068FD1F4B204A1A601E4B31
:100A7C0000225A601C4B00229A601B4B1C4ADA6005
:100A8C00194B00221A61184B00229A61164B180060
:100A9C0001F023FA031E01D000F0BEF8124B18002F
:100AAC0001F069FA031E01D000F0B6F83B1D60227C
:100ABC001A603B1D00225A603B1D00229A603B1DB0
:100ACC0000221A61391D084B0022180001F0DCFBD2
:100ADC00031E01D000F0A0F8034B1800FFF778FDBF
:100AEC00C046BD4608B080BDD800002000200040A4
:100AFC00FF0F000080B582B000AF0C4B5A690B4B56
:100B0C0001210A435A61094B5B69012213407B6046
:100B1C007B6800220021092001F0BAF9092001F0BC
:100B2C00CCF9C046BD4602B080BDC04600100240A4
:100B3C0090B589B000AF0C243B19180014231A008F
:100B4C00002102F0F9FC294B5A69284B8021C9037A
:100B5C000A435A61254B5A698023DB031340BB605F
:100B6C00BB68224B5A69214B802189020A435A6186
:100B7C001E4B5A6980239B0213407B607B681C4B85
:100B8C0000220321180002F0B8FA9023DB050022A2
:100B9C004021180002F0B1FA3B1903221A603B19EC
:100BAC0001225A603B1900229A603B190022DA603C
:100BBC003B190F4A1900100002F012F921007B18A2
:100BCC0040221A607B1801225A607B1800229A601E
:100BDC007B180022DA607A189023DB0511001800CC
:100BEC0002F0FEF8C046BD4609B090BD00100240B0
:100BFC000014004880B582B000AF78607B681B6839
:100C0C00044A934201D100F025F8C046BD4602B01B
:100C1C0080BDC0460044014080B500AFC046BD4613
:100C2C0080BD80B500AFC046BD4680BD80B500AF6D
:100C3C00074B1A68064B10210A431A600020FFF775
:100C4C0033FDFFF7EFFB00231800BD4680BDC04607
:100C5C000020024080B500AF054B1B781A00054BF5
:100C6C001B68D218034B1A60C046BD4680BDC046F7
:100C7C00080000209C01002080B500AF024B1B68CF
:100C8C001800BD4680BDC0469C01002080B584B0D4
:100C9C0000AF7860FFF7F0FF0300BB607B68FB6080
:100CAC00FB68013305D00A4B1B781A00FB689B18B4
:100CBC00FB60C046FFF7E0FF0200BB68D31AFA687E
:100CCC009A42F7D8C046C046BD4604B080BDC04667
:100CDC000800002080B584B000AF78600F23FB18AB
:100CEC0000221A700023BB607B68002B01D101230A
:100CFC0025E17B689B6B002B0AD17B680022DA63B1
:100D0C007B683422002199547B681800FFF7AEFBF6
:100D1C007B689B6B1022134000D003E10F23FB1860
:100D2C001B78002B00D0FDE07B681B689B680422BD
:100D3C00134000D0F6E07B689B6B834A1340022281
:100D4C001A437B689A637B681B689B680322134079
:100D5C00012B12D17B681B681B6801221340012BED
:100D6C0009D07B681B68DA6880231B021A40802339
:100D7C001B029A4201D1012300E00023002B16D163
:100D8C007B681B68DB681822934319007B689A68A0
:100D9C007B681B680A43DA607B681B681B699B00D5
:100DAC0099087B685A687B681B680A431A617B68E0
:100DBC001B68DA687B681B6864490A40DA607B68E8
:100DCC001B7E9A037B685B7EDB031A437B689B7EEE
:100DDC005B031A437B689B6A012B02D080235B0167
:100DEC0000E000231A437B68DB681A437B681B69AD
:100DFC00022B01D1042300E000231A437B68242139
:100E0C005B5C5B001343BA681343BB607B68DB7E9F
:100E1C00012B15D17B689B7E002B05D1BB688022F2
:100E2C0052021343BB600BE07B689B6B20221A437E
:100E3C007B689A637B68DB6B01221A437B68DA63FD
:100E4C007B68DA69C223FF339A4207D07B68DA6980
:100E5C007B681B6A1343BA681343BB607B681B68CF
:100E6C00D9687B681B68BA680A43DA607B68DA6AFF
:100E7C0080235B059A421BD07B68DB6A012B17D061
:100E8C007B68DB6A022B13D07B68DB6A032B0FD0E9
:100E9C007B68DB6A042B0BD07B68DB6A052B07D0E5
:100EAC007B68DB6A062B03D07B68DB6A072B12D1CD
:100EBC007B681B685A697B681B6807218A435A61E7
:100ECC007B681B6859697B68DB6A07221A407B6860
:100EDC001B680A435A617B681B68DB681C4A134019
:100EEC00BA689A420BD17B680022DA637B689B6BF1
:100EFC000322934301221A437B689A631CE07B68AC
:100F0C009B6B1222934310221A437B689A637B6873
:100F1C00DB6B01221A437B68DA630F23FB18012277
:100F2C001A7009E07B689B6B10221A437B689A63EA
:100F3C000F23FB1801221A700F23FB181B781800C3
:100F4C00BD4604B080BDC046FDFEFFFF1902FEFF8A
:100F5C00E7FF3F8390B587B000AFF860B9607A6067
:100F6C001723FB1800221A70FB681B689B6804226D
:100F7C0013405ED1FB6834229B5C012B01D1022310
:100F8C005EE0FB68342201219954FB685B7E012BE7
:100F9C0007D01723FC18FB68180000F05BF903005E
:100FAC0023701723FB181B78002B46D1FB689B6B17
:100FBC00254A1340802252001A43FB689A63FB684F
:100FCC000022DA63FB68342200219954FB681B6B06
:100FDC001E4A9A62FB681B6B1D4ADA62FB681B6B2C
:100FEC001C4A1A63FB681B681C221A60FB681B688E
:100FFC005A68FB681B6810210A435A60FB681B681F
:10100C00DA68FB681B6801210A43DA60FB68186B1D
:10101C00FB681B6840331900BA687B6801F090FDCF
:10102C00FB681B689A68FB681B6804210A439A607A
:10103C0003E01723FB1802221A701723FB181B78E6
:10104C001800BD4607B090BDFEF0FFFF5913000815
:10105C000D1400082B14000880B582B000AF786026
:10106C00C046BD4602B080BD80B584B000AF78608C
:10107C0039600F23FB1800221A700023BB607B68B9
:10108C00DA6A80235B059A4211D07B68DB6A012BFC
:10109C000DD07B68DB6A022B09D07B68DB6A032BE3
:1010AC0005D07B68DB6A042B01D07B68DB6A7B682C
:1010BC0034229B5C012B01D10223BBE07B683422E0
:1010CC00012199547B681B689B680422134000D053
:1010DC009FE03B685B68594A934200D177E07B689C
:1010EC001B68996A3B681B6801229A407B681B68E5
:1010FC000A439A627B68DA6A80235B059A4237D08E
:10110C007B68DB6A012B33D07B68DB6A022B2FD028
:10111C007B68DB6A032B2BD07B68DB6A042B27D024
:10112C007B68DB6A052B23D07B68DB6A062B1FD020
:10113C007B68DB6A072B1BD03B689A687B681B6853
:10114C005B6907210B409A4212D07B681B685A6975
:10115C007B681B6807218A435A617B681B68596945
:10116C003B689B6807221A407B681B680A435A61DC
:10117C003B681B68102B03D03B681B68112B52D1AA
:10118C002F4B19683B681B68102B02D180231B0462
:10119C0001E08023DB032A4A0B4313603B681B6886
:1011AC00102B40D1274B1B6827491800FEF7A4FFD2
:1011BC0003001A0013009B009B185B00BB6002E04D
:1011CC00BB68013BBB60BB68002BF9D12BE07B6893
:1011DC001B689A6A3B681B68012199400B00D94334
:1011EC007B681B680A409A623B681B68102B03D013
:1011FC003B681B68112B16D1114B19683B681B6897
:10120C00102B01D1114A00E0114A0D4B0A401A6013
:10121C0009E07B689B6B20221A437B689A630F233F
:10122C00FB1801221A707B683422002199540F2379
:10123C00FB181B781800BD4604B080BD01100000DF
:10124C00082701400000002040420F00FFFF7FFFF5
:10125C00FFFFBFFF80B584B000AF78600023FB6058
:10126C000023BB607B681B689B6803221340012B27
:10127C0012D17B681B681B6801221340012B09D01B
:10128C007B681B68DA6880231B021A4080231B02D0
:10129C009A4201D1012300E00023002B4BD17B6843
:1012AC001B689B68264A13400DD07B689B6B1022F1
:1012BC001A437B689A637B68DB6B01221A437B6859
:1012CC00DA63012338E07B681B689A687B681B68CB
:1012DC0001210A439A601B4B1B681B491800FEF73F
:1012EC000BFF0300BB6002E0BB68013BBB60BB684B
:1012FC00002BF9D1FFF7C0FC0300FB6014E0FFF7F3
:10130C00BBFC0200FB68D31A022B0DD97B689B6BCC
:10131C0010221A437B689A637B68DB6B01221A43A9
:10132C007B68DA63012307E07B681B681B6801227A
:10133C001340012BE3D100231800BD4604B080BD3F
:10134C00170000800000002040420F0080B584B0E0
:10135C0000AF78607B685B6AFB60FB689B6B50221C
:10136C00134040D1FB689B6B802292001A43FB68B0
:10137C009A63FB681B68DA68C0231B0113402DD1EC
:10138C00FB689B7E002B29D1FB681B681B6808221D
:10139C001340082B22D1FB681B689B680422134066
:1013AC0010D1FB681B685A68FB681B680C218A43C8
:1013BC005A60FB689B6B114A134001221A43FB686D
:1013CC009A630BE0FB689B6B20221A43FB689A63C1
:1013DC00FB68DB6B01221A43FB68DA63FB681800BD
:1013EC0001F0F6FE05E0FB681B6B1B6B7A681000C6
:1013FC009847C046BD4604B080BDC046FEFEFFFF08
:10140C0080B584B000AF78607B685B6AFB60FB687A
:10141C00180001F0E9FEC046BD4604B080BD80B5A1
:10142C0084B000AF78607B685B6AFB60FB689B6B89
:10143C0040221A43FB689A63FB68DB6B04221A4355
:10144C00FB68DA63FB681800FFF706FEC046BD4672
:10145C0004B080BD80B588B000AF78607B68002B8D
:10146C0001D1012301E37B681B680122134000D1E9
:10147C008DE0C34B5B680C221340042B0ED0C04B89
:10148C005B680C221340082B16D1BD4B5A68802385
:10149C005B021A4080235B029A420DD1B84B1A684A
:1014AC0080239B02134000D170E07B685B68002BAB
:1014BC0000D06BE00123D8E27B685B68012B07D17D
:1014CC00AF4B1A68AE4B802149020A431A602FE0D9
:1014DC007B685B68002B0CD1A94B1A68A84BA949F7
:1014EC000A401A60A64B1A68A54BA7490A401A6015
:1014FC001EE07B685B68052B0ED1A14B1A68A04BD4
:10150C008021C9020A431A609D4B1A689C4B8021AA
:10151C0049020A431A600BE0994B1A68984B994997
:10152C000A401A60964B1A68954B97490A401A6004
:10153C007B685B68002B14D0FFF79EFB0300BB613C
:10154C0008E0FFF799FB0200BB69D31A642B01D9A1
:10155C0003238AE28A4B1A6880239B021340F0D043
:10156C0015E0FFF789FB0300BB6108E0FFF784FB84
:10157C000200BB69D31A642B01D9032375E2804B9B
:10158C001A6880239B021340F0D100E0C0467B68B0
:10159C001B680222134000D169E0794B5B680C2276
:1015AC0013400BD0764B5B680C221340082B1CD1DC
:1015BC00734B5A6880235B02134016D1704B1B6827
:1015CC000222134005D07B68DB68012B01D001237C
:1015DC004BE26B4B1B68F822934319007B681B6929
:1015EC00DA00674B0A431A6041E07B68DB68002B2A
:1015FC0024D0634B1A68624B01210A431A60FFF72F
:10160C003BFB0300BB6108E0FFF736FB0200BB6944
:10161C00D31A022B01D9032327E2594B1B68022250
:10162C001340F1D0564B1B68F822934319007B688A
:10163C001B69DA00524B0A431A6018E0504B1A68C7
:10164C004F4B01218A431A60FFF716FB0300BB6165
:10165C0008E0FFF711FB0200BB69D31A022B01D97A
:10166C00032302E2464B1B6802221340F1D17B6834
:10167C001B680822134036D07B68DB69002B19D01D
:10168C003F4B5A6A3E4B01210A435A62FFF7F4FA68
:10169C000300BB6108E0FFF7EFFA0200BB69D31A45
:1016AC00022B01D90323E0E1354B5B6A0222134084
:1016BC00F1D018E0324B5A6A314B01218A435A62FD
:1016CC00FFF7DAFA0300BB6108E0FFF7D5FA020076
:1016DC00BB69D31A022B01D90323C6E1284B5B6AE1
:1016EC0002221340F1D17B681B680422134000D105
:1016FC00B4E01F203B1800221A70214BDA698023BA
:10170C005B05134010D11E4BDA691D4B8021490536
:10171C000A43DA611A4BDA6980235B051340FB60DC
:10172C00FB683B1801221A70184B1A6880235B0067
:10173C0013401AD1154B1A68144B802149000A43E7
:10174C001A60FFF799FA0300BB6108E0FFF794FAFF
:10175C000200BB69D31A642B01D9032385E10B4B1F
:10176C001A6880235B001340F0D07B689B68012BC8
:10177C000ED1034B1A6A024B01210A431A6235E05F
:10178C0000100240FFFFFEFFFFFFFBFF0070004058
:10179C007B689B68002B0CD1B64B1A6AB54B0121A8
:1017AC008A431A62B34B1A6AB24B04218A431A62F7
:1017BC001CE07B689B68052B0CD1AE4B1A6AAD4BB9
:1017CC0004210A431A62AB4B1A6AAA4B01210A4341
:1017DC001A620BE0A74B1A6AA64B01218A431A62C4
:1017EC00A44B1A6AA34B04218A431A627B689B6838
:1017FC00002B14D0FFF740FA0300BB6109E0FFF7A0
:10180C003BFA0200BB69D31A9B4A934201D90323CA
:10181C002BE1984B1B6A02221340F0D013E0FFF728
:10182C002BFA0300BB6109E0FFF726FA0200BB6943
:10183C00D31A914A934201D9032316E18D4B1B6AAB
:10184C0002221340F0D11F23FB181B78012B05D16A
:10185C00884BDA69874B89490A40DA617B681B68D7
:10186C001022134063D07B685B69012B2AD1814B1A
:10187C005A6B804B04210A435A637E4B5A6B7D4B47
:10188C0001210A435A63FFF7F7F90300BB6108E033
:10189C00FFF7F2F90200BB69D31A022B01D903231B
:1018AC00E3E0744B5B6B02221340F1D0714B5B6B2A
:1018BC00F822934319007B689B69DA006D4B0A434D
:1018CC005A6334E07B685B69053311D1694B5A6B01
:1018DC00684B04218A435A63664B5B6BF822934333
:1018EC0019007B689B69DA00624B0A435A631EE05D
:1018FC00604B5A6B5F4B04210A435A635D4B5A6B26
:10190C005C4B01218A435A63FFF7B6F90300BB61B4
:10191C0008E0FFF7B1F90200BB69D31A022B01D919
:10192C000323A2E0534B5B6B02221340F1D17B6883
:10193C001B6A002B00D197E04E4B5B680C221340C6
:10194C00082B00D16BE07B681B6A022B4CD1494BF6
:10195C001A68484B4A490A401A60FFF78DF9030090
:10196C00BB6108E0FFF788F90200BB69D31A022BB0
:10197C0001D9032379E03F4B1A6880239B04134061
:10198C00F0D13C4BDB6A0F22934319007B68DA6A77
:10199C00384B0A43DA62374B5B683A4A13401900FA
:1019AC007B689A6A7B685B6A1A43324B0A435A60BB
:1019BC00304B1A682F4B802149040A431A60FFF7F9
:1019CC005BF90300BB6108E0FFF756F90200BB6945
:1019DC00D31A022B01D9032347E0264B1A68802324
:1019EC009B041340F0D03FE0224B1A68214B244952
:1019FC000A401A60FFF740F90300BB6108E0FFF7EB
:101A0C003BF90200BB69D31A022B01D903232CE04A
:101A1C00184B1A6880239B041340F0D124E07B6898
:101A2C001B6A012B01D101231FE0124B5B687B6108
:101A3C00104BDB6A3B617A6980235B021A407B683E
:101A4C005B6A9A420ED13B690F221A407B68DB6AB3
:101A5C009A4207D17A69F0239B031A407B689B6AF0
:101A6C009A4201D0012300E000231800BD4608B0C3
:101A7C0080BDC0460010024088130000FFFFFFEF3E
:101A8C00FFFFFFFEFFFFC2FF80B584B000AF7860A0
:101A9C0039607B68002B01D10123B3E05B4B1B68E1
:101AAC00012213403A689A4211D9584B1B68012203
:101ABC0093431900554B3A680A431A60534B1B6801
:101ACC00012213403A689A4201D001239AE07B68C4
:101ADC001B680222134015D07B681B68042213403C
:101AEC0006D04B4B5A684A4BE021C9000A435A6056
:101AFC00474B5B68F022934319007B689A68444B10
:101B0C000A435A607B681B680122134040D07B68F3
:101B1C005B68012B07D13E4B1A6880239B02134054
:101B2C0014D101236EE07B685B68022B07D1384B24
:101B3C001A6880239B04134008D1012362E0344BC4
:101B4C001B680222134001D101235BE0304B5B6820
:101B5C000322934319007B685A682D4B0A435A6041
:101B6C00FFF78AF80300FB6009E0FFF785F8020035
:101B7C00FB68D31A274A934201D9032342E0244B32
:101B8C005B680C221A407B685B689B009A42ECD124
:101B9C001E4B1B68012213403A689A4211D21B4B10
:101BAC001B68012293431900184B3A680A431A60C8
:101BBC00164B1B68012213403A689A4201D001234C
:101BCC0020E07B681B680422134009D0104B5B6833
:101BDC00114A134019007B68DA680D4B0A435A60AE
:101BEC0000F020F801000A4B5B681B090F22134020
:101BFC000A4AD35C0A00DA40094B1A600020FEF74F
:101C0C0053FD00231800BD4604B080BD00200240E7
:101C1C000010024088130000FFF8FFFF6C3500082D
:101C2C000000002090B58FB000AF1423FB182B4A96
:101C3C0013CA13C312681A603B1D294A13CA13C373
:101C4C0012681A600023FB620023BB6200237B63D3
:101C5C0000237B6200233B63224B5B68FB62FB6AC5
:101C6C000C221340042B02D0082B03D02DE01E4B6A
:101C7C003B632DE0FB6A9B0C0F2213401422BA1815
:101C8C00D35C7B62174BDB6A0F2213403A1DD35C8B
:101C9C00BB62FA6A80235B02134009D0B96A12480E
:101CAC00FEF72AFA03001A007B6A53437B6309E0B0
:101CBC00796A0A005201521A93019B1ADB005B18D5
:101CCC001B027B637B6B3B6302E0074B3B63C046B1
:101CDC003B6B1800BD460FB090BDC0468435000864
:101CEC00943500080010024000127A0080B500AF55
:101CFC00024B1B681800BD4680BDC046000000208A
:101D0C0080B500AFFFF7F2FF0100064B5B681B0AC2
:101D1C0007221340044AD35CD9400B001800BD467F
:101D2C0080BDC046001002407C35000880B582B0F2
:101D3C0000AF786039607B6807221A600E4B5B68D5
:101D4C0003221A407B685A600B4B5B68F0221A40E6
:101D5C007B689A60084B5A68E023DB001A407B686A
:101D6C00DA60064B1B6801221A403B681A60C046B9
:101D7C00BD4602B080BDC0460010024000200240AB
:101D8C0080B582B000AF0200FB1D1A70FB1D1B78E2
:101D9C007F2B09D8FB1D1B781A001F231A40044BFC
:101DAC00012191400A001A60C046BD4602B080BDB8
:101DBC0000E100E090B583B000AF02003960FB1D7C
:101DCC001A70FB1D1B787F2B28D82F4AFB1D1B7804
:101DDC005BB29B08C0339B009B58FA1D1278110014
:101DEC0003220A40D200FF2191400A00D2431A403C
:101DFC0011003B689B01FF221A40FB1D1B78180049
:101E0C0003230340DB009A401F48FB1D1B785BB289
:101E1C009B080A43C0339B001A5031E01B4AFB1D40
:101E2C001B7819000F230B40083B9B0806339B00C3
:101E3C00D31804331B68FA1D1278110003220A40D0
:101E4C00D200FF2191400A00D2431A4011003B6896
:101E5C009B01FF221A40FB1D1B7818000323034033
:101E6C00DB009A400948FB1D1B781C000F23234004
:101E7C00083B9B080A4306339B00C31804331A60C3
:101E8C00C046BD4603B090BD00E100E000ED00E0AF
:101E9C0080B584B000AFB9607A600F217B18021C4A
:101EAC001A70BA687B181B785BB211001800FFF728
:101EBC0081FFC046BD4604B080BD80B582B000AF86
:101ECC000200FB1D1A70FB1D1B785BB21800FFF79C
:101EDC0057FFC046BD4602B080BD80B582B000AF92
:101EEC0078607B68002B01D101231EE07B683D22CA
:101EFC009B5CDBB2002B07D17B683C220021995400
:101F0C007B681800FEF744FB7B683D220221995444
:101F1C007B681A687B6804331900100000F098FA8B
:101F2C007B683D220121995400231800BD4602B064
:101F3C0080BD80B584B000AF78607B681B68DA68C0
:101F4C007B681B6801210A43DA607B681B689B680D
:101F5C0007221340FB60FB68062B07D07B681B68CD
:101F6C001A687B681B6801210A431A600023180059
:101F7C00BD4604B080BD80B582B000AF78607B6890
:101F8C00002B01D101231EE07B683D229B5CDBB260
:101F9C00002B07D17B683C22002199547B681800E8
:101FAC00FEF7D6FA7B683D22022199547B681A68A9
:101FBC007B6804331900100000F04AFA7B683D225C
:101FCC000121995400231800BD4602B080BD0000C9
:101FDC0080B584B000AF786039607B681B68396865
:101FEC000122180000F080FC7B681B68184A9342A1
:101FFC0009D07B681B68174A934204D07B681B6826
:10200C00154A934201D1012300E00023002B08D094
:10201C007B681B685A6C7B681B68802109020A4329
:10202C005A647B681B689B6807221340FB60FB6843
:10203C00062B07D07B681B681A687B681B6801211C
:10204C000A431A6000231800BD4604B080BDC04688
:10205C00002C0140004401400048014080B582B092
:10206C0000AF78607B681B681B6902221340022B4F
:10207C0024D17B681B68DB6802221340022B1DD124
:10208C007B681B68032252421A617B6801221A7713
:10209C007B681B689B690322134004D07B68180083
:1020AC0000F0BEF907E07B68180000F0B1F97B681E
:1020BC00180000F0BDF97B6800221A777B681B685A
:1020CC001B6904221340042B25D17B681B68DB6839
:1020DC0004221340042B1ED17B681B68052252423C
:1020EC001A617B6802221A777B681B689A69C02385
:1020FC009B00134004D07B68180000F091F907E0B6
:10210C007B68180000F084F97B68180000F090F9E7
:10211C007B6800221A777B681B681B6908221340B6
:10212C00082B24D17B681B68DB6808221340082B22
:10213C001DD17B681B68092252421A617B680422FC
:10214C001A777B681B68DB690322134004D07B6819
:10215C00180000F065F907E07B68180000F058F9EA
:10216C007B68180000F064F97B6800221A777B68A2
:10217C001B681B6910221340102B25D17B681B6830
:10218C00DB6810221340102B1ED17B681B681122B8
:10219C0052421A617B6808221A777B681B68DA69DD
:1021AC00C0239B00134004D07B68180000F038F962
:1021BC0007E07B68180000F02BF97B68180000F032
:1021CC0037F97B6800221A777B681B681B69012230
:1021DC001340012B0FD17B681B68DB680122134075
:1021EC00012B08D17B681B68022252421A617B6862
:1021FC001800FEF7FFFC7B681B681B6980221340EC
:10220C00802B0FD17B681B68DB6880221340802BEE
:10221C0008D17B681B68812252421A617B681800C6
:10222C0000F03EFC7B681B681B6940221340402B6E
:10223C000FD17B681B68DB6840221340402B08D110
:10224C007B681B68412252421A617B68180000F0BF
:10225C00F7F87B681B681B6920221340202B0FD1D9
:10226C007B681B68DB6820221340202B08D17B681D
:10227C001B68212252421A617B68180000F008FC8E
:10228C00C046BD4602B080BD80B584B000AFF860DA
:10229C00B9607A60FB683C229B5C012B01D1022364
:1022AC00AFE0FB683C2201219954FB683D220221DE
:1022BC0099547B680C2B00D176E07B680C2B00D9F1
:1022CC0095E07B68082B4ED07B68082B00D98EE0FC
:1022DC007B68002B03D07B68042B21D087E0FB6844
:1022EC001B68BA681100180000F01EF9FB681B6827
:1022FC009A69FB681B6808210A439A61FB681B6892
:10230C009A69FB681B6804218A439A61FB681B6805
:10231C009969BB681A69FB681B680A439A6167E094
:10232C00FB681B68BA681100180000F07BF9FB68A9
:10233C001B689A69FB681B68802109010A439A6132
:10234C00FB681B689A69FB681B6830490A409A61F4
:10235C00FB681B689969BB681B691A02FB681B68E0
:10236C000A439A6144E0FB681B68BA6811001800C4
:10237C0000F0D6F9FB681B68DA69FB681B6808215A
:10238C000A43DA61FB681B68DA69FB681B68042185
:10239C008A43DA61FB681B68D969BB681A69FB68F8
:1023AC001B680A43DA6123E0FB681B68BA681100FA
:1023BC00180000F035FAFB681B68DA69FB681B68CB
:1023CC00802109010A43DA61FB681B68DA69FB6842
:1023DC001B680E490A40DA61FB681B68D969BB6847
:1023EC001B691A02FB681B680A43DA6100E0C046ED
:1023FC00FB683D2201219954FB683C220021995431
:10240C0000231800BD4604B080BDC046FFFBFFFF93
:10241C0080B582B000AF7860C046BD4602B080BDCA
:10242C0080B582B000AF7860C046BD4602B080BDBA
:10243C0080B582B000AF7860C046BD4602B080BDAA
:10244C0080B582B000AF7860C046BD4602B080BD9A
:10245C0080B584B000AF786039607B681B68FB6026
:10246C007B682B4A934203D07B682A4A934208D15B
:10247C00FB6870229343FB603B685B68FA6813430C
:10248C00FB607B68224A93420FD07B68214A9342BF
:10249C000BD07B68204A934207D07B681F4A93423B
:1024AC0003D07B681E4A934208D1FB681D4A134037
:1024BC00FB603B68DB68FA681343FB60FB688022B7
:1024CC0093431A003B685B691343FB607B68FA68B3
:1024DC001A603B689A687B68DA623B681A687B68AA
:1024EC009A627B680A4A934207D07B680B4A9342F4
:1024FC0003D07B680A4A934203D13B681A697B6814
:10250C001A637B6801225A61C046BD4604B080BD87
:10251C00002C014000040040002000400044014019
:10252C0000480140FFFCFFFF80B586B000AF78602B
:10253C0039607B681B6A012293431A007B681A621C
:10254C007B681B6A7B617B685B683B617B689B6912
:10255C00FB60FB6870229343FB60FB680322934390
:10256C00FB603B681B68FA681343FB607B690222C3
:10257C0093437B613B689B687A6913437B617B68FF
:10258C00234A934207D07B68224A934203D07B684C
:10259C00214A93420CD17B69082293437B613B68AF
:1025AC00DB687A6913437B617B69042293437B610B
:1025BC007B68174A934207D07B68164A934203D034
:1025CC007B68154A934211D13B69144A13403B6115
:1025DC003B69134A13403B613B685B693A6913439F
:1025EC003B613B689B693A6913433B617B683A6981
:1025FC005A607B68FA689A613B685A687B685A63D0
:10260C007B687A691A62C046BD4606B080BDC0467A
:10261C00002C01400044014000480140FFFEFFFF38
:10262C00FFFDFFFF80B586B000AF786039607B6836
:10263C001B6A102293431A007B681A627B681B6A20
:10264C007B617B685B683B617B689B69FB60FB68BB
:10265C002C4A1340FB60FB682B4A1340FB603B6821
:10266C001B681B02FA681343FB607B6920229343AF
:10267C007B613B689B681B017A6913437B617B68B8
:10268C00224A93420DD17B69802293437B613B6844
:10269C00DB681B017A6913437B617B69402293439E
:1026AC007B617B68194A934207D07B68184A934236
:1026BC0003D07B68174A934213D13B69164A1340E7
:1026CC003B613B69154A13403B613B685B699B006E
:1026DC003A6913433B613B689B699B003A6913431E
:1026EC003B617B683A695A607B68FA689A613B681F
:1026FC005A687B689A637B687A691A62C046BD46E1
:10270C0006B080BDFF8FFFFFFFFCFFFF002C0140D8
:10271C000044014000480140FFFBFFFFFFF7FFFFB3
:10272C0080B586B000AF786039607B681B6A334A2D
:10273C001A407B681A627B681B6A7B617B685B68EA
:10274C003B617B68DB69FB60FB6870229343FB6039
:10275C00FB6803229343FB603B681B68FA681343D6
:10276C00FB607B69264A13407B613B689B681B02BC
:10277C007A6913437B617B68224A93420DD17B6952
:10278C00214A13407B613B68DB681B027A69134367
:10279C007B617B691D4A13407B617B68194A9342BC
:1027AC0007D07B681A4A934203D07B68194A93423C
:1027BC0013D13B69184A13403B613B69174A1340DC
:1027CC003B613B685B691B013A6913433B613B68A6
:1027DC009B691B013A6913433B617B683A695A60F8
:1027EC007B68FA68DA613B685A687B68DA637B68F5
:1027FC007A691A62C046BD4606B080BDFFFEFFFF77
:10280C00FFFDFFFF002C0140FFF7FFFFFFFBFFFF69
:10281C000044014000480140FFEFFFFFFFDFFFFFD6
:10282C0080B586B000AF786039607B681B6A264A39
:10283C001A407B681A627B681B6A3B617B685B6829
:10284C007B617B68DB69FB60FB68204A1340FB60A3
:10285C00FB681F4A1340FB603B681B681B02FA684D
:10286C001343FB603B691B4A13403B613B689B680D
:10287C001B033A6913433B617B68174A934207D0A9
:10288C007B68164A934203D07B68154A934209D160
:10289C007B69144A13407B613B685B699B017A69D5
:1028AC0013437B617B687A695A607B68FA68DA61EA
:1028BC003B685A687B681A647B683A691A62C0463E
:1028CC00BD4606B080BDC046FFEFFFFFFF8FFFFF88
:1028DC00FFFCFFFFFFDFFFFF002C01400044014025
:1028EC0000480140FFBFFFFF80B586B000AFF86025
:1028FC00B9607A60BB681F22134001229A40130012
:10290C007B61FB681B6A7A69D2431A40FB681A62C6
:10291C00FB681A6ABB681F210B40796899400B0051
:10292C001A43FB681A62C046BD4606B080BD000063
:10293C0080B584B000AF786039607B683C229B5CCA
:10294C00012B01D102233CE07B683C2201219954EC
:10295C007B683D22022199547B681B685B68FB6095
:10296C007B681B689B68BB60FB6870229343FB60B1
:10297C003B681B68FA681343FB607B681B68FA684A
:10298C005A607B681B68114A934204D07B681B68B1
:10299C000F4A93420CD1BB6880229343BB603B68C7
:1029AC005B68BA681343BB607B681B68BA689A6043
:1029BC007B683D22012199547B683C22002199546B
:1029CC0000231800BD4604B080BDC046002C014059
:1029DC000004004080B584B000AF786039600023FB
:1029EC00FB607B683C229B5C012B01D102233EE007
:1029FC007B683C2201219954FB68FF2293431A0007
:102A0C003B68DB681343FB60FB681B4A1A403B685E
:102A1C009B681343FB60FB68184A1A403B685B6871
:102A2C001343FB60FB68164A1A403B681B68134350
:102A3C00FB60FB68134A1A403B681B691343FB603D
:102A4C00FB68114A1A403B685B691343FB60FB68E7
:102A5C000E4A1A403B68DB691343FB607B681B68BA
:102A6C00FA685A647B683C220021995400231800B0
:102A7C00BD4604B080BDC046FFFCFFFFFFFBFFFF5F
:102A8C00FFF7FFFFFFEFFFFFFFDFFFFFFFBFFFFFC2
:102A9C0080B582B000AF7860C046BD4602B080BD44
:102AAC0080B582B000AF7860C046BD4602B080BD34
:102ABC0080B584B000AF78600023FB607B68002B8E
:102ACC0001D1012336E07B682122022199547B68D5
:102ADC001B681B68FB60FB68184A1340FB607B6833
:102AEC005A687B689B681A437B68DB681A437B686F
:102AFC001B691A437B685B691A437B689B691A43A1
:102B0C007B68DB691343FA681343FB607B681B68C3
:102B1C00FA681A607B68180000F046F97B6800229E
:102B2C009A637B682122012199547B682022002121
:102B3C00995400231800BD4604B080BD0FC0FFFFA0
:102B4C0080B586B000AFF860B9607A603B6017233F
:102B5C00FB1800221A70FB6820229B5C012B01D110
:102B6C0002234FE0FB68202201219954FB682122AB
:102B7C009B5CDBB2012B3AD1FB68212202219954D8
:102B8C00FB6800229A63FB681B681A68FB681B6869
:102B9C0001218A431A603B687A68B968F86800F0CA
:102BAC00D7F8FB68DB6A002B08D0FB681B681A6837
:102BBC00FB681B680E210A431A600FE0FB681B6858
:102BCC001A68FB681B680A210A431A60FB681B68B9
:102BDC001A68FB681B6804218A431A60FB681B682F
:102BEC001A68FB681B6801210A431A6007E0FB683E
:102BFC002022002199541723FB1802221A70172344
:102C0C00FB181B781800BD4606B080BD80B584B09B
:102C1C0000AF78607B68DB6B1B68FB607B681B68B4
:102C2C001B68BB607B681B6C04229A401300FA681B
:102C3C00134024D0BB680422134020D07B681B684F
:102C4C001B682022134007D17B681B681A687B68BD
:102C5C001B6804218A431A607B681A6C7B68DB6BE7
:102C6C00042191400A005A607B68DB6A002B00D17A
:102C7C006AE07B68DB6A7A681000984764E07B68DE
:102C8C001B6C02229A401300FA6813402BD0BB68CD
:102C9C000222134027D07B681B681B68202213403C
:102CAC000BD17B681B681A687B681B680A218A43F6
:102CBC001A607B682122012199547B681A6C7B680D
:102CCC00DB6B022191400A005A607B6820220021B4
:102CDC0099547B689B6A002B36D07B689B6A7A6818
:102CEC001000984730E07B681B6C08229A40130058
:102CFC00FA68134028D0BB680822134024D07B68A4
:102D0C001B681A687B681B680E218A431A607B68F3
:102D1C001A6C7B68DB6B012191400A005A607B685E
:102D2C0001229A637B682122012199547B6820221D
:102D3C00002199547B681B6B002B05D07B681B6BA7
:102D4C007A6810009847FFE7C046BD4604B080BDC6
:102D5C0080B584B000AFF860B9607A603B60FB6806
:102D6C001A6CFB68DB6B012191400A005A60FB680E
:102D7C001B683A685A60FB685B68102B08D1FB68CB
:102D8C001B687A689A60FB681B68BA68DA6007E0AF
:102D9C00FB681B68BA689A60FB681B687A68DA6023
:102DAC00C046BD4604B080BD80B582B000AF78602F
:102DBC007B681B68084A9446634414211800FDF78D
:102DCC009BF903009A007B681A647B68034ADA63F8
:102DDC00C046BD4602B080BDF8FFFDBF00000240FA
:102DEC0080B586B000AF7860396000237B614FE11D
:102DFC003B681B6801217A6991400A001340FB6013
:102E0C00FB68002B00D140E13B685B68022B03D0D0
:102E1C003B685B68122B23D17B69DA087B6808322C
:102E2C009200D3583B617B69072213409B000F2211
:102E3C009A401300DA433B6913403B613B681A69C3
:102E4C007B6907210B409B009A4013003A6913439E
:102E5C003B617B69DA087B68083292003969D15092
:102E6C007B681B683B617B695B0003229A40130003
:102E7C00DA433B6913403B613B685B6803221A40B1
:102E8C007B695B009A4013003A6913433B617B6892
:102E9C003A691A603B685B68012B0BD03B685B6836
:102EAC00022B07D03B685B68112B03D03B685B6837
:102EBC00122B30D17B689B683B617B695B000322E2
:102ECC009A401300DA433B6913403B613B68DA6874
:102EDC007B695B009A4013003A6913433B617B6842
:102EEC003A699A607B685B683B6101227B699A4016
:102EFC001300DA433B6913403B613B685B681B0979
:102F0C0001221A407B699A4013003A6913433B61D2
:102F1C007B683A695A607B68DB683B617B695B0064
:102F2C0003229A401300DA433B6913403B613B6830
:102F3C009A687B695B009A4013003A6913433B61C2
:102F4C007B683A69DA603B685A6880235B051340FA
:102F5C0000D19AE0544B9A69534B01210A439A6170
:102F6C00514B9B6901221340BB60BB684F4A7B6984
:102F7C009B0802339B009B583B617B6903221340E7
:102F8C009B000F229A401300DA433B6913403B61CC
:102F9C007A689023DB059A4213D07B68444A9342AB
:102FAC000DD07B68434A934207D07B68424A9342D8
:102FBC0001D1032306E0052304E0022302E00123F0
:102FCC0000E000237A6903210A40920093403A6999
:102FDC0013433B6135497B699B0802339B003A697B
:102FEC005A50364B1B683B61FB68DA433B69134014
:102FFC003B613B685A6880235B02134003D03A69FB
:10300C00FB6813433B612D4B3A691A602B4B5B6891
:10301C003B61FB68DA433B6913403B613B685A6890
:10302C0080239B02134003D03A69FB6813433B6136
:10303C00224B3A695A60214B9B683B61FB68DA432F
:10304C003B6913403B613B685A6880235B03134028
:10305C0003D03A69FB6813433B61184B3A699A6099
:10306C00164BDB683B61FB68DA433B6913403B6101
:10307C003B685A6880239B03134003D03A69FB6872
:10308C0013433B610D4B3A69DA607B6901337B6119
:10309C003B681A687B69DA40131E00D0A8E6C0466C
:1030AC00C046BD4606B080BD001002400000014085
:1030BC000004004800080048000C004800040140CF
:1030CC0080B584B000AF78600A00BB1C1A807B68A6
:1030DC001B69BA1C1288134004D00F23FB18012261
:1030EC001A7003E00F23FB1800221A700F23FB1831
:1030FC001B781800BD4604B080BD80B582B000AF0F
:10310C00786008001100BB1C021C1A807B1C0A1C76
:10311C001A707B1C1B78002B04D0BB1C1A887B6894
:10312C009A6103E0BB1C1A887B689A62C046BD4654
:10313C0002B080BD80B582B000AF78600A00BB1CC5
:10314C001A807B685B69BA1C1288134005D0BB1CC3
:10315C001B881A047B689A6103E0BB1C1A887B6885
:10316C009A61C046BD4602B080BD000080B584B0F7
:10317C0000AF786039607B68FB603B685B08FA687D
:10318C009A421DD2104BFA685200D35A98B2FB687F
:10319C00032213400D4A99008A58010051180B4A1A
:1031AC009B009950FB6803221340084A99008A58E7
:1031BC005108064A9B009950FB680133FB60DCE721
:1031CC00C046BD4604B080BD280000204800002049
:1031DC0080B582B000AF786010210820FFF7C6FFE1
:1031EC00C046BD4602B080BD80B582B000AF7860ED
:1031FC0008210020FFF7BAFFC046BD4602B080BDD3
:10320C0080B500AF124B180000F0D4F803005A1E22
:10321C009341DBB2002B01D0FDF7FEFC0D490C4BAA
:10322C0010221800FDF796FE03005A1E9341DBB2E4
:10323C00002B01D0FDF7F0FC074B1B6803229A62B0
:10324C00054B00211800FEF7C3FEC046BD4680BDED
:10325C005C01002028000020D800002080B500AFC1
:10326C00FDF70AFD03001800BD4680BD80B582B095
:10327C0000AF78607B681800FDF708FDC046BD46BE
:10328C0002B080BD80B500AF044B012202211800B2
:10329C00FFF733FFC046BD4680BDC0460014004852
:1032AC0080B500AF034B02211800FFF743FFC04667
:1032BC00BD4680BD0014004880B500AF044B012210
:1032CC0001211800FFF719FFC046BD4680BDC0465E
:1032DC000014004880B500AF044B002201211800F7
:1032EC00FFF70BFFC046BD4680BDC046001400482A
:1032FC0080B500AF064B01211800FFF7E1FE03007B
:10330C00013B5A425341DBB21800BD4680BDC0465A
:10331C000014004880B500AF024B5B681800BD4636
:10332C0080BDC0464800002080B582B000AF044B81
:10333C001B687B607B681800BD4602B080BDC04630
:10334C004800002080B582B000AF7860034B1B684A
:10335C007A685A63C046BD4602B080BDD8000020D2
:10336C000D4885460D480E490E4A002302E0D458FC
:10337C00C4500433C4188C42F9D30B4A0B4C0023B1
:10338C0001E013600432A242FBD3FDF74AFC00F0CB
:10339C00AFF8FDF7E7F9FEE7001000200000002071
:1033AC000C000020AC3500080C000020A00100200F
:1033BC00FEE7000080B586B000AF78601723FB18DD
:1033CC0000221A7000233B610023FB607B683422CF
:1033DC009B5C012B01D1022384E07B683422012108
:1033EC0099547B681B689B6803221340012B12D1F4
:1033FC007B681B681B6801221340012B09D07B687A
:10340C001B68DA6880231B021A4080231B029A4235
:10341C0001D1012300E00023002B52D17B689B6B70
:10342C00324A134002221A437B689A637B681B68FA
:10343C00DB6803221340FB607B681B68DA687B68DF
:10344C001B6803218A43DA607B681B689A687B6877
:10345C001B68802109060A439A60FDF70DFC0300E6
:10346C003B6114E0FDF708FC02003B69D31A022B08
:10347C000DD97B689B6B1222934310221A437B68F5
:10348C009A637B6834220021995401232AE07B68DB
:10349C001B689B68DB0FDA0780231B069A42E1D07E
:1034AC007B681B68D9687B681B68FA680A43DA601A
:1034BC007B689B6B0322934301221A437B689A63BC
:1034CC0009E07B689B6B20221A437B689A63172365
:1034DC00FB1801221A707B6834220021995417239F
:1034EC00FB181B781800BD4606B080BDFDFEFFFF23
:1034FC0070B500260C4D0D4C641BA410A64209D1CE
:10350C00002600F021F80A4D0A4C641BA410A642B8
:10351C0005D170BDB300EB5898470136EEE7B30008
:10352C00EB5898470136F2E7A4350008A43500089B
:10353C00A4350008A835000803008218934200D176
:10354C00704719700133F9E7F8B5C046F8BC08BCF0
:10355C009E467047F8B5C046F8BC08BC9E467047FE
:10356C000000000000000000010203040607080927
:10357C000000000001020304020304050607080909
:10358C000A0B0C0D0E0F10100102030405060708A0
:08359C00090A0B0C0D0E0F10C3
:0435A400E500000836
:0435A800BD0000085A
:0C35AC0000127A00040000000100000082
:040000050800336D4F
:00000001FF
